:020000040800F2
:1000000000180020B95000081550000817500008CB
:1000100000000000000000000000000000000000E0
:10002000000000000000000000000000195000085F
:1000300000000000000000001B5000081D500008D8
:100040003951000839510008395100083951000868
:100050003951000839510008395100083951000858
:10006000395100082550000839510008395100085D
:10007000555000083951000839510008395100081D
:10008000395100080000000000000000395100084C
:1000900000000000395100083951000839510008AA
:1000A000000000003951000839510008395100089A
:1000B000395100080000000039510008395100088A
:1000C00010B5064C2378002B07D1054B002B02D02E
:1000D000044800E000BF0123237010BDD8010020B8
:1000E00000000000AC720008044B10B5002B03D0D8
:1000F0000349044800E000BF10BDC04600000000F6
:10010000DC010020AC720008002243088B4274D34B
:1001100003098B425FD3030A8B4244D3030B8B4208
:1001200028D3030C8B420DD3FF22090212BA030C11
:100130008B4202D31212090265D0030B8B4219D3F2
:1001400000E0090AC30B8B4201D3CB03C01A524112
:10015000830B8B4201D38B03C01A5241430B8B425A
:1001600001D34B03C01A5241030B8B4201D30B0343
:10017000C01A5241C30A8B4201D3CB02C01A52416A
:10018000830A8B4201D38B02C01A5241430A8B422D
:1001900001D34B02C01A5241030A8B4201D30B0216
:1001A000C01A5241CDD2C3098B4201D3CB01C01A30
:1001B000524183098B4201D38B01C01A524143093A
:1001C0008B4201D34B01C01A524103098B4201D328
:1001D0000B01C01A5241C3088B4201D3CB00C01A95
:1001E000524183088B4201D38B00C01A524143080D
:1001F0008B4201D34B00C01A5241411A00D2014632
:10020000524110467047FFE701B5002000F006F8A4
:1002100002BDC0460029F7D076E770477047C04658
:100220008446081C6146FFE71FB500F06DFB0028FF
:1002300001D40021C8421FBD10B500F0EFFA4042C2
:10024000013010BD10B500F05FFB002801DB00207D
:1002500010BD012010BDC04610B500F055FB0028B0
:1002600001DD002010BD012010BDC04610B500F01A
:10027000FDFA002801DC002010BD012010BDC046A1
:1002800010B500F0F3FA002801DA002010BD0120BB
:1002900010BDC0469E2110B5C905041CFFF7F0FF34
:1002A000002803D1201C00F075FE10BD9E21201CEB
:1002B000C90500F0ABFC00F06DFE80231B069C46D8
:1002C0006044F2E7F8B54746CE4643025B0A440075
:1002D000C20F9C464800DD004B02240E5B0A000E54
:1002E00080B5984626009146C90FDB00271A8A423E
:1002F00029D0002F15DD00284AD1002B00D095E031
:10030000ED08FF2C00D188E06B025B0AE6B25B02CD
:10031000F605580A3043D20710430CBC9046994664
:10032000F8BD002F00D087E0601CC0B2012800DCBF
:10033000B6E0EE1A720100D5C5E0002E3DD10022D4
:1003400000260023E3E7002F00DC96E000285DD0C4
:10035000FF2C60D08022D20413431B2F00DDECE081
:100360002022D21B18009340F8405A1E93410343A9
:10037000ED186B017BD50134FF2C00D1B7E00122D1
:1003800007262A406B089A4D1D4015432E4029E050
:10039000FF2CB5D08022D20413431B2F00DDB2E026
:1003A0002022D21B19009340F9405A1E93410B435F
:1003B000ED1A6B015BD5AD01AE09300000F09CFE7B
:1003C00005388640844265DC041B3300202001345C
:1003D000E340041BA640751EAE41334307261D00B3
:1003E00000241E4001224B461A40002E04D00F2349
:1003F0002B40042B00D004356B0100D480E701347E
:10040000E6B2FF2C2FD1FF26002380E7002B52D12C
:10041000FF2C00D074E70A00ED08002DF3D08023F4
:10042000DB032B435B025B0AFF2670E7013F002FD3
:10043000BED0FF2CB1D163E7002C47D0FF2869D094
:100440008024E4047A4225431B2A00DDC5E02C0009
:100450002026D440B21A95406A1E954125435D1B63
:1004600004008946A5E7AB015B0A50E7002401229E
:100470004B461A406B07BAD142E7002F3BD10134FB
:10048000E0B201284ADDFF2CBDD00726ED186D082B
:100490002E40A7E70723574D241A35401E40A1E7F9
:1004A000002C1BD1002D6ED1002B00D19AE00A0048
:1004B0001D003C0024E7013F002F00D158E7FF2C2E
:1004C00000D04AE7A7E75E1B894676E7002D1CD1DE
:1004D0000A00FF281FD004001D0011E7002D5DD188
:1004E000002B17D180230022DB03FF260FE70A0031
:1004F000FF2600230BE7002C21D1002D66D1FF2819
:10050000E9D11D0087E7012352E77A1CA7D0FA43FF
:10051000FF2899D10A001D00FF24F1E6002E21D109
:10052000002D4FD0002B4CD0ED186B019ED5314BD8
:1005300007362E4001241D4054E7012318E7FF2809
:10054000DFD08024E4047F4225431B2F4DDC20268E
:10055000F61B2C00B540FC406A1E95412543ED1862
:10056000040006E7002DCCD0002B00D153E78021FA
:100570006046C903084203D04046084200D11D002E
:100580000121114047E7002B00D1B9E6EA1A5001DA
:1005900025D507265D1B2E40894623E7FF24002B27
:1005A00000D1ADE680226046D203104204D040461E
:1005B000104201D11D00894601224B46FF241A40FA
:1005C0009EE62B00DD080A0000249DE67A1CC6D0BA
:1005D000FF43FF28B9D11D001DE701253FE7151E88
:1005E00000D044E70022002391E60125B7E7C0468A
:1005F000FFFFFF7DFFFFFFFBF8B557464E46454620
:10060000DE464402E0B546008846640A360EC70F4F
:10061000002E63D0FF2E24D08023E400DB041C4393
:10062000002399469B467F3E434642465D02D20FD9
:100630005B006D0A1B0E9046924665D0FF2B55D08D
:1006400080220021ED00D2047F3B1543F61A434679
:100650004A467B400F2A00D98DE06D4892008258AF
:100660009746002C54D108239946063BFF269B460B
:10067000DAE70025534602291BD0032900D1BFE049
:10068000012928D030007F30002820DD6A0704D0FF
:100690000F222A40042A00D004352A0103D5300055
:1006A0005C4A80301540FE2803DCAC01640AC2B20B
:1006B00001E0FF2200246402D205600ADB07104338
:1006C00018433CBC90469946A246AB46F8BD012271
:1006D000101A1B287CDD00220024ECE7002C1DD121
:1006E00004239946033B00269B469DE7FF3E002DD1
:1006F00020D1022143464A467B400A430F2AD8D8DC
:100700004548920082589746002D19D10121F1E702
:100710000C239946093BFF269B4685E7200000F005
:10072000EBFC7626431F9C4000237642361A9946FE
:100730009B4679E74A4603231A439146032186E7FD
:10074000280000F0D9FC431F36189D407636002162
:100750007DE780240023E403FF22ACE7002580230B
:10076000DB031C4228D01D4226D12B435C02640AC5
:100770004346FF229FE762016C01A24224D21B2163
:100780000025013E012710006D005200002801DB0A
:10079000944201D8121B3D4301390029F3D11400C2
:1007A000621E944125436DE7BA46594625005346DB
:1007B000022900D061E77CE78023DB031C4364024D
:1007C000640A3B00FF2276E7121B1A210125D9E7B4
:1007D0009E362A00B5402C00C240651EAC41144331
:1007E000620704D00F222240042A00D004346201A0
:1007F00003D4A401640A00225DE7012200245AE721
:100800008024E4032C436402640AFF2253E7C046B9
:1008100000730008FFFFFFF74073000870B5420047
:100820004E024C0045026D0A120EC30F760A240ECA
:10083000C90FFF2A0FD0FF2C11D00120A24200D0F7
:1008400070BDB542FCD18B420DD0002AF8D12800F2
:10085000451EA841F4E70120002DF1D1EBE701206E
:10086000002EEDD1E9E70020EAE7C04670B54A0066
:100870004E02450244006D0A240EC30F760A120E82
:10088000C90FFF2C15D0FF2A0ED0002C15D1002A3D
:1008900001D1002E1CD0002D14D08B4227D0022075
:1008A000013B1840013870BD002EEED002204042BE
:1008B000F9E7002DFAD1FF2A0ED0002A0ED1002E22
:1008C000EDD00BE001230139994308000130EAE73C
:1008D0000020002DE7D0E2E7002EE7D18B42DED1E9
:1008E000944205DD0221581E08400138DBE7002450
:1008F000A24204DCB542D2D80020B542D3D2581E61
:10090000012398430130CEE730B5420044024D0246
:10091000C30F4800640A120E6D0A000EC90FFF2AA9
:1009200012D0FF280CD0002A12D1002819D1002D96
:1009300017D1002C2BD00220013B1840013826E0B3
:10094000002DF0D0022022E0002CFBD1FF281FD088
:1009500000281FD1002D1DD10220013B1840013875
:1009600015E0002C0ED08B42E5D10022904204DC31
:10097000AC42E0D80020AC4209D2581E0123984373
:10098000013004E00123013999430800013030BDF2
:10099000002DD7D18B42CED18242E7DD0221581EF5
:1009A00008400138F3E7C046F0B54E465746454685
:1009B000DE46E0B543025B0A450083B00F1C994652
:1009C0002D0EC60F002D57D0FF2D24D08020DB0028
:1009D000C0041843002381469A469B467F3D7C0213
:1009E0007A00FB0F640A120E984623D0FF2A4BD0E0
:1009F000E30080240020E4047F3A1C43AD186B1C04
:100A000047460193534677403A000F2B48D87D491B
:100A10009B00CB589F46002B00D085E008339A46B8
:100A2000063B9B467C027A00FB0FFF25640A120EF0
:100A30009846DBD1002C00D090E0524601231A43A7
:100A400092460120DBE74C4658461700022824D086
:100A5000032800D1CFE00022002301284DD1580205
:100A6000D205400AFF071043384303B03CBC904610
:100A70009946A246AB46F0BD002B5BD104239A46B3
:100A8000033B00259B46AAE7FF35002C60D1524668
:100A900002231A4392460220B1E7FF220023DEE739
:100AA0004B461B0C9C464B462604360C18046146EC
:100AB0003300220C6446000C43434E4350435443DE
:100AC00080191A0C1218964203D9802149028C46CB
:100AD00064441B041B0C1004C01883015E1EB34148
:100AE000800E1843130C1B199B0103431C002301A8
:100AF00079D5012362081C401443019A7F32002AF1
:100B00004DDD630704D00F232340042B00D00434B1
:100B1000230103D53C4B019A1C408032FE2ABCDCE9
:100B2000A3015B0AD2B29AE70C239A46093BFF2540
:100B30009B4654E7180000F0DFFA4A46431F76252B
:100B40009A4000236D4291462D1A9A469B4646E7ED
:100B5000524603231A439246032050E7200000F038
:100B6000CBFA431F2D1A9C40763D002047E7802397
:100B70000027DB03FF2272E7424666E74C4632005D
:100B8000584662E780234A46DB031A4222D01C42C1
:100B900020D123435B025B0A4746FF225FE7012324
:100BA0009A1A1B2A21DC23000199D3409E318C40E4
:100BB0001A0023005C1EA34113435A0704D00F22DE
:100BC0001A40042A00D004335A0111D49B015B0A55
:100BD000002244E780234A46DB0313435B025B0A9F
:100BE0003700FF223BE7019587E70022002336E725
:100BF0000122002333E78023DB0323435B025B0AEC
:100C0000FF222CE780730008FFFFFFF7F8B5474687
:100C1000CE464400C20F80B547024802400A8446CF
:100C2000664648007F0A240EF60025009046FB0029
:100C3000000EC90FB146FF2800D185E001267140A2
:100C4000261A914257D0002E43DD002800D07FE0C5
:100C50004946002900D1AAE0013E002E00D0F7E06D
:100C60005B1A5A0100D48BE09B019C09200000F024
:100C700043FA05388440854200DDD3E0451B23005C
:100C800020200135EB40451BAC40621E94412343BC
:100C9000072400251C40012241460A40002C04D0B4
:100CA0000F211940042900D00433590100D480E0F9
:100CB0000135ECB2FF2D00D0A3E0FF2400235B023E
:100CC000E405580AD207204310430CBC90469946CD
:100CD000F8BD002E74D1601CC0B2012800DCA7E072
:100CE0004A469C1A620100D5B6E0002CBED1002213
:100CF00000240023E3E7002E00DC85E0002846D036
:100D0000FF2C49D080224846D2041043814601225C
:100D10001B2E09DC20204C46801B84404A462000C4
:100D2000F240441EA04102439B185A0128D50135C8
:100D3000FF2D00D1A8E00122072494491A405B0846
:100D40000B4013431C40A6E7002E00D078E775E760
:100D5000FF2C54D080224946D204114389460122F7
:100D60001B2E09DC20214846891B88404A46010089
:100D7000F240481E81410A439B1A5A0100D573E78D
:100D8000012241460A40590700D089E711E0484650
:100D9000002858D1FF2C0CD1DB08002B00D18CE7A8
:100DA0008020C00303435B025B0AFF2487E7FF2C1C
:100DB00025D0DB08FF2DF0D05B025B0AECB27EE7AA
:100DC000002C4DD0FF2818D08024E4047242234325
:100DD0001B2A00DDC4E01C002025D440AA1A934041
:100DE0005A1E934123434A460500D31A884638E7E2
:100DF000721CF8D0F243FF28EAD10A004B46FF25C7
:100E0000D7E79B015B0A5AE7002E41D1651CE9B286
:100E1000012945DDFF2D00D14FE707244B445B0836
:100E20001C4038E707225A4B2D1A2340144032E762
:100E3000002C1DD1002B7AD14B46002B00D191E024
:100E40000A000025B5E7013E002E19D14B446CE79E
:100E5000FF2C84D1FF25ACE74A468846D41A05E723
:100E6000002BC5D10A00FF28C8D005004B46A0E7DB
:100E7000002B49D14B46002B77D00A00FF2598E77D
:100E8000FF2C00D043E787E70A00FF24002316E782
:100E9000002C15D1002B57D1FF28E6D14B467BE71C
:100EA000002C20D1002B57D04946002953D04B4469
:100EB0005A0168D50724364A1C4001251340EAE64A
:100EC000FF28EBD08022D204764213431B2E53DC42
:100ED0002025AD1B1A00AB40F2405C1EA34113431A
:100EE0004B44050021E7002BD8D04946002900D10A
:100EF00052E78021C9030F4200D14DE76046084206
:100F000000D049E74B4647E74846FF25002800D177
:100F10004FE78022D203174204D06046104201D12D
:100F20004B46884601224146FF250A4041E7484694
:100F300000281FD01A1A500120D54A460724D31A78
:100F40001C4088460025A6E6741CC9D0F643FF283D
:100F5000BCD14B4620E799464B460025DB082BE7E2
:100F6000012340E700220023A9E680230022DB03BF
:100F7000FF24A4E600251CE70123B1E7002AF1D0F5
:100F800013000025FCE60025FAE6C046FFFFFF7DC2
:100F9000FFFFFFFB41024200C30F490A120E00206F
:100FA0007E2A0DD99D2A0CD8802000040143952A61
:100FB0000ADC9620821AD1404842002B00D108005A
:100FC0007047034A9818FBE7963A9140F4E7C04609
:100FD000FFFFFF7F70B5041E34D000F08DF89E2215
:100FE000121A962A07DCD2B208282EDD083884406F
:100FF0006002400A21E0992A09DD030021001B3329
:1010000099404B1E994105231B1ADC400C430528CF
:1010100001DD431F9C4023000D490B40650709D0AB
:101020000F252C40042C05D004335C0102D59F22EF
:101030000B40121A9B01580AD2B24002D205400A54
:10104000104370BD00220020F7E76002400AF4E779
:10105000FFFFFFFB4100090E4B1C70B5DBB24602DF
:10106000750AC40F012B14DDE0239B006D07360BBE
:10107000CB1800210A0D280012051C4D32435B05D8
:101080002A405B0813435B00E4075B082343190015
:1010900070BD002914D1002D1ED0280000F02CF8BE
:1010A0000A281CDC0B232A001B1ADA400300153324
:1010B0009D400F4B12031B1A5B05160B5B0DD8E707
:1010C000002D06D0320B802636036D071643094BE0
:1010D000CFE7084B0026CCE700230026C9E7030032
:1010E0002A000B3B9A400025E3E7C046FFFF0F8034
:1010F00089030000FF0700001C2101231B04984204
:1011000001D3000C10391B0A984201D3000A083998
:101110001B09984201D30009043902A2105C40184F
:101120007047C046040302020101010100000000F3
:10113000000000000023C25C0133002AFBD1581ECE
:101140007047000002B4714649084900095C490033
:101150008E4402BC7047C04603460B437FD4002236
:1011600043088B4274D303098B425FD3030A8B423B
:1011700044D3030B8B4228D3030C8B420DD3FF22A5
:10118000090212BA030C8B4202D31212090265D073
:10119000030B8B4219D300E0090AC30B8B4201D326
:1011A000CB03C01A5241830B8B4201D38B03C01A6D
:1011B0005241430B8B4201D34B03C01A5241030BE4
:1011C0008B4201D30B03C01A5241C30A8B4201D395
:1011D000CB02C01A5241830A8B4201D38B02C01A40
:1011E0005241430A8B4201D34B02C01A5241030AB7
:1011F0008B4201D30B02C01A5241CDD2C3098B429C
:1012000001D3CB01C01A524183098B4201D38B0118
:10121000C01A524143098B4201D34B01C01A5241BB
:1012200003098B4201D30B01C01A5241C3088B4200
:1012300001D3CB00C01A524183088B4201D38B00EB
:10124000C01A524143088B4201D34B00C01A52418D
:10125000411A00D201465241104670475DE0CA0F64
:1012600000D04942031000D34042534000229C4624
:1012700003098B422DD3030A8B4212D3FC2289012E
:1012800012BA030A8B420CD3890192118B4208D304
:10129000890192118B4204D389013AD0921100E066
:1012A0008909C3098B4201D3CB01C01A524183097A
:1012B0008B4201D38B01C01A524143098B4201D3A7
:1012C0004B01C01A524103098B4201D30B01C01AD2
:1012D0005241C3088B4201D3CB00C01A524183084C
:1012E0008B4201D38B00C01A5241D9D243088B42A2
:1012F00001D34B00C01A5241411A00D20146634645
:1013000052415B10104601D34042002B00D54942A8
:10131000704763465B1000D3404201B50020FEF7E2
:101320007DFF02BD0029F8D016E770478446101CE7
:1013300062468C46191C634600E0C0461FB500F0AB
:10134000F1FE002801D40021C8421FBD10B500F0F5
:1013500049FE4042013010BD10B500F0E3FE002808
:1013600001DB002010BD012010BDC04610B500F00B
:10137000D9FE002801DD002010BD012010BDC046AF
:1013800010B500F06BFE002801DC002010BD01202C
:1013900010BDC04610B500F061FE002801DA002043
:1013A00010BD012010BDC046F0B54F464646D6469A
:1013B0000C000903C0B5490A470F5E0039431F03FB
:1013C000DB0F9C4665007B0A570F1F436D0DE40F32
:1013D000760DA146C000B846D200AB1B64457BD059
:1013E000002B5FDD002E00D0A4E03E00164300D1AC
:1013F00012E15E1E002E00D09EE1871A4346B842DD
:1014000080410125C91A4042091A0B0200D431E17A
:1014100049024E0A002E00D16EE13000FFF76CFE4B
:101420000300083B1F2B00DD61E120223900D21AA6
:101430009E40D1409F400E439D4200DD51E15D1B27
:101440006B1C1F2B00DD7CE12021C91A3D00300000
:101450008F408840DD40791E8F41310007222843AC
:10146000D940002507433A40002A09D00F233B40CA
:10147000042B05D03B1DBB42BF417F42C9191F0051
:101480000B0200D426E26A1CC64B55056D0D9A422C
:1014900000D106E1C44AFF080A40530752023B4309
:1014A000120B8EE0002B00D0B8E06B1C5B055B0DCF
:1014B000012B00DC30E1871A4346B842B641CB1A13
:1014C00076429E1B330200D54CE13B003343A1D151
:1014D00000220024002570E0002B00DCE5E0002E57
:1014E00000D183E0AF4EB54260D08026360437434A
:1014F000B846382B00DC3EE1434613431F007A1EFA
:1015000097413F1887428041404209180B0200D49E
:10151000B0E0A44B01359D4200D1C3E0A24A7B0854
:101520000A4001210F401F435108D30707221F43E0
:101530003A4099E79B4EB54238D08026360437436F
:10154000B846382B00DDDCE01F2B00DC30E11E004C
:101550004746203EF740BC46202B04D04026F31AD5
:1015600046469E403243170063467A1E97411F430A
:10157000CCE0002B00D104E24346134300D159E1F3
:101580004B07C00818438023C9081B03194208D021
:101590004546ED081D4204D14346D008590708438B
:1015A0002900420FC9007F4D1143C0004B07CA08F4
:1015B0007C49C00803438D4268D012036D05120BAD
:1015C0006D0D002112031800130B0A0D12051A43AA
:1015D000764B2D0513402B435B00E4075B08234348
:1015E00019001CBC90469946A246F0BD3E00164329
:1015F00012D05E1E002E00D000E187188742804185
:1016000041444042091801250B0233D5022585E7E4
:1016100064463300414610001D00C7E7002D00D08E
:10162000DAE00C000443F3D05C1C00D19FE15D4C78
:10163000A64200D12FE1DB43382B00DD66E11F2BF2
:1016400000DD83E120240500E41A0F00DD40D940CD
:10165000A0404346A7405B1A441EA04198462F4332
:101660003843171ABA42924143465242991A644685
:101670003500CAE607223A40002A00D0F6E64B07BA
:10168000CA084849FF083B438D4296D119001143CF
:1016900000D19EE1802109030A431203120B414D40
:1016A0008FE71500002200238BE7002B00D0C7E056
:1016B0006B1C5F057F0D012F00DCF1E0394DAB4263
:1016C00000D1B9E085180A00854289414244494267
:1016D00051180722CF076D082F4349083A401D00D3
:1016E000C2E607223049ED1A31403A40BCE63E00DE
:1016F0002838864000279FE63800FFF7FDFC2030A1
:101700008EE6434613431F007A1E9741C71BB8421B
:1017100080414042091A78E60E003B00064313431D
:10172000002D61D1002E00D0F4E0002B00D11BE190
:1017300064463900100039E71A4FBB427AD03300B3
:10174000FFE630001F3DE840202B03D04021CB1A9C
:101750009E4037437B1E9F41072207433A400021AA
:10176000002589E7171A4346BA42B641591A76420C
:101770008E1B64464EE61F2B00DDADE0202647465B
:10178000F61AB740B9461700B246DF404E463E4310
:1017900037005646B240561EB24117434246DA4021
:1017A0008918AEE6FF070000FFFF7FFFFFFF0F80F5
:1017B00020264746F61AB740B9461700B246DF4022
:1017C0004E463E4337005646B240561EB24117437E
:1017D0004246DA40891A99E77F4CA6425BD08024C2
:1017E00024045B42214327E7002E0CD1002B00D1BB
:1017F000CBE0644639001000774DD7E6764FBB4208
:1018000018D0330075E6002B14D04B07C0081843DE
:101810008023C9081B03194207D0FC081C4204D1CD
:101820007907D0080843E14621004C46420FC90021
:101830001143C000684DB9E61D0000220023C0E638
:10184000002D5BD10D00054300D1E2E65D1C00D107
:10185000B0E0614DAE421FD0DB43382B71DC1F2B53
:1018600000DD96E020250F00ED1AAF40B9460700D5
:10187000AA46DF404D463D432F005546A840D9407B
:10188000451EA84188440743BF18974292415142E0
:10189000414435003AE6644635004146100085E68D
:1018A0000B000343002D00D063E6002BF5D0434628
:1018B000134300D17AE687188742804107224144CA
:1018C000404209183A400B0200D4D5E6434B01359B
:1018D0001940C9E5380069E61E004746203EF7403A
:1018E000BC46202B04D04026F31A46469E40324385
:1018F000170063467A1E97411F4302E6364DAE42FB
:10190000CAD080252D045B422943A6E70843411E27
:101910008841A6E6002B00D148E6871A4346B84224
:10192000B641CB1A76429E1B33024BD5171A43465B
:10193000BA429241591A5242891A072264463A40E1
:1019400092E501430F00791E8F419DE71C000F00B7
:10195000203CE740202B03D04024E31A9940084361
:10196000411E884138437CE60022002425E6171AF0
:101970004346BA429241591A5242891A6446350086
:1019800043E541461000144D10E680220024120366
:1019900080E61D000F00203DEF40BC46202B03D009
:1019A0004025EB1A9940084307006346781E87419B
:1019B0001F4369E7871897429B4141445B42C9181E
:1019C0003500A3E53B003343CED0072231003A4037
:1019D00052E600231A00F4E5FF070000FFFF7FFF37
:1019E000F0B55746DE464E464546E0B5834607000D
:1019F0000E03480085B092461C00360B400DCD0FFB
:101A0000002800D19DE0954B984239D08023F60004
:101A10001B041E43924A7B0F3343994694460300AE
:101A20006344009300230026FF00029323031B0B53
:101A300098466300E40F52465B0D019400D1B3E079
:101A400086498B4200D19EE04246D100802212049A
:101A50000A435146490F11438B46814952468C46F1
:101A600000996344CB1A0021D20000932B006340FD
:101A70009A460F2E00D905E17A4BB6009B599F4636
:101A80005B463343994600D0B8E00223082600277E
:101A900000900293CAE7CB463A0002990195019B58
:101AA0009A46022927D0032900D180E2012944D097
:101AB0006D49009B8C4663441C00002C38DD5307A5
:101AC00000D013E2D2085B46DB0109D55946674BCB
:101AD00019408B468021C9008C46009B63441C0042
:101AE000634B9C4207DC5B4664055F075B02174360
:101AF0001B0B620D02E000230027584A00211B0344
:101B00001C0B0B0D1B05234314055A4A38001340C8
:101B10001C4353466400DB0764081C43210005B0E6
:101B20003CBC90469946A246AB46F0BD01225242CB
:101B300001231B1B382B00DCADE100220023002712
:101B4000DCE75B46334399465ED0002E00D18AE144
:101B50003000FFF7D1FA03000B3B1C2B00DD7BE1CB
:101B60001D22D31A5A460100DA4008398E4013006C
:101B70005F46334399468F403F4B00261B1A009324
:101B80000023029352E7414653460B433B499B4691
:101B90008C46009B634400935B46002B3BD10223A1
:101BA00000221E43022161E7434613439B4637D080
:101BB0004346002B00D162E14046FFF79DFA030047
:101BC0000B3B1C2B00DD53E102004146083A9140DB
:101BD00088461D21CB1A5146D9400B0041460B4384
:101BE0009B46534693401A00009B25499C466044FF
:101BF00003008C4663440093002137E70323B1467A
:101C000000900C26029311E7002300930133042671
:101C1000002702930AE70323C3461E43032125E757
:101C200001331E430022012120E700239A4680232E
:101C300000271B03094A61E7802349461B03194219
:101C400000D1E2E05946194200D0DEE00B431B030D
:101C500017001B0BA246014A50E7C046FF070000D1
:101C600001FCFFFFC0730008FF030000FFFFFFFE41
:101C7000FE070000FFFF0F800DFCFFFF01F8FFFFD4
:101C8000F3030000D94500D9CBE000D1C6E03C0009
:101C900048460027009B013B00935B46160E1B0243
:101CA0001E431302984633041B0C9946310C0191D4
:101CB000FEF7B0FA4A4642430B04210C05001943D3
:101CC0008A4207D98919013D8E4203D88A4201D937
:101CD000851E8919881A0199FEF79CFA09048C4619
:101CE0004A46210464464243090C030021438A42C8
:101CF00004D98919013B8E4200D8F1E02D041D431F
:101D0000AB464346891A4246280C12041D0C5B461A
:101D1000140C22001B041B0C5A4303946B434443D2
:101D2000029568431B19150CEB189C4203D98024BB
:101D30006402A44660441C0C15041B042D0C2018DE
:101D40005D19814277D373D00C1AA24A7D1BAF4232
:101D5000BF419446009B7F426344E01B1C008642C7
:101D600000D1DBE00199FEF755FA4A4642430B04E5
:101D7000290C070019438A4207D98919013F8E426D
:101D800003D88A4201D9871E8919881A0199FEF75A
:101D900041FA09044A46894629044D464243090C42
:101DA000030029438A4207D98919013B8E4203D88F
:101DB0008A4201D9831E89193F04891A3A00039F78
:101DC0001A43380013041B0C584381460298150C23
:101DD0006F43434345434846000C8446DB19634444
:101DE0009F4203D9802040028446654448461F0C28
:101DF00000041B04000C7D191818A94200D284E0CD
:101E000000D17FE001231A4357E680234A461B0393
:101E100013431B031B0BAA466F4A6FE6BA4200D955
:101E200035E74B46DC0758087B081C43FF0734E7BF
:101E30000024AF4289D247444745A4415B466442EF
:101E4000A4196418013BA6421ED2A0426DD800D14D
:101E5000B6E0241A9B4678E703005A46283B9A408E
:101E60000027914688E65846FFF746F9203072E68B
:101E700003005246283B9A4093460022B4E650465F
:101E8000FFF73AF920309AE6A642E2D1B845DCD90C
:101E9000341A9B4659E71F2B65DC504C0099A44629
:101EA0005C46614408008C4011008240D940501EBD
:101EB00082410C4314435A46DA401300620709D0AA
:101EC0000F222240042A05D02200141D9442894189
:101ED00049425B181A0262D50122002300270DE651
:101EE0008A4200D80AE7831E891907E70F231340A7
:101EF000042B00D1E6E5171D9742924153429B44C3
:101F0000FA08E0E5002800D1D7E57118531EB14268
:101F100027D3A94215D358D01A0073E7002B00DC51
:101F200004E6012300229B44CDE5022347444745B4
:101F300089415B429C46494289190C19E344241AA1
:101F400003E743465F0047459B41B8465B429E1905
:101F5000023A8919A94200D054E7404500D051E720
:101F6000ABE51A00F6E71F215F4649420C1BE7402C
:101F7000202B07D01A49009B8C46634418005B460F
:101F800083401A43501E82413A43072700231740DB
:101F900009D00F21002311401400042995D12200FB
:101FA0005F075B021B0BD20817430022A6E58023C4
:101FB00059461B030B431B0317001B0B064A9DE5E9
:101FC000BD42B2D89B460024BFE68045B9D31A0073
:101FD000C3E7C046FF030000FF0700001E04000027
:101FE0003E040000F0B54F464646D6468446C0B58E
:101FF0008046194E18030F034D00000B5C0082460B
:102000003F0B6D0DC90F9146640DDB0F0120B542EA
:102010000AD0B44203D0A54201D157450CD01CBC14
:1020200090469946A246F0BD66463E43F7D1AC4283
:10203000F5D154461443F2D10120C845EFD199425D
:1020400007D0002DEBD163461F433800471EB8412F
:10205000E5E70020E3E7C046FF070000F0B54F4684
:102060004646D6464D00C0B50E03C90F8A462C49D8
:102070001F035C008046360B6D0D91463F0B640DCF
:10208000DB0F8D421ED08C4216D0002D1ED1304366
:102090008446002C01D13A4323D06246002A1AD04C
:1020A0009A4529D0514602200139084001381CBC0C
:1020B00090469946A246F0BD39001143E5D0022072
:1020C0004042F4E73043FAD1AC420FD0002C0FD19C
:1020D0003A43E7D00CE00122013B93431800013062
:1020E000E5E763460020002BE1D0DBE73A43E6D189
:1020F0009A45D7D1A542D5DCA54205DBBE42D1D851
:1021000008D00020BE42D2D2504601230138984365
:102110000130CCE7C845C5D80020C845F4D3C6E790
:10212000FF070000F0B54F464646D6464D00C0B505
:102130000E03C90F8A462E491F035C008046360BEA
:102140006D0D91463F0B640DDB0F8D4218D08C4214
:1021500011D0002D18D130438446002C1ED13A43B3
:102160001CD163460020002B30D05146022001399B
:10217000084001382AE039001143EAD0022025E066
:102180003043FBD1AC4226D0002C26D13A4324D197
:102190005146022001390840013817E06246002A02
:1021A0000FD09A45E1D1A54205DBBE42DDD819D05A
:1021B0000020BE420AD25046012301389843013024
:1021C00004E00122013B9343180001301CBC9046FF
:1021D0009946A246F0BD3A43D0D19A45C5D1A54211
:1021E000C3DCE0E7C845C0D80020C845E3D3EDE72D
:1021F000FF070000F0B55746DE464E464546E0B5BF
:10220000834606000F03480087B092461D003F0B2F
:10221000400DCC0F002800D16FE0DE4B984238D043
:102220008023FF001B041F43730F3B430193DA4BD2
:102230000027994600239B46F60081442B03690042
:102240001B0B52469846490DED0F002900D185E041
:10225000D04B994200D173E04346DA0080231B043F
:1022600013435246CC48520F844613435246002033
:102270006144D20089442100694000918C460121CB
:1022800049448A460F2F00D990E0C449BF00CF5976
:10229000BF465B463B43019300D06AE10223082717
:1022A000002681469B46C9E732005846019B61469D
:1022B0000091022800D175E0032800D1FEE1012839
:1022C00000D02CE100230027002600253F032A0D23
:1022D0003F0BB34812053A4302401B051343009AD3
:1022E0005B00D1075B080B433000190007B03CBC12
:1022F00090469946A246AB46F0BD5B463B430193F0
:1023000000D12FE1002F00D1A5E13800FEF7F4FE47
:1023100003000B3B1C2B00DD96E11D22D31A5A460D
:102320000100DA405E4608398F4013008E403B437F
:1023300001939C4B00271B1A994600239B467DE77F
:10234000414653460B4393498C46E144002B00D051
:102350001AE102220220174300228CE7134300D126
:102360000DE14346002B00D181E14046FEF7C4FE5B
:1023700002000B3A1C2A00DD72E1010043460839D5
:102380008B4098461D239A1A5346D3401A00434661
:10239000134352468A404946081A82498946814475
:1023A000002068E77B4B002700268EE7140C120400
:1023B000120C1100370C3604350C794328008C467A
:1023C0002E0060436044834656432100300C804613
:1023D0005846794340440291844506D98846802175
:1023E00049028C46E044414602913604010C360C09
:1023F00000048B4681191E0C1B041B0C0391190051
:1024000079438C46280075436544A8465843050C1B
:1024100045447743A94203D9802149028C46674449
:10242000290C8C4639000004000C2D042D18614441
:10243000AB4405915946049101990F043F0C080CD7
:10244000390051434243904602008C46090C8B46AA
:1024500062437C4344445C44A04503D98021490243
:1024600088464244210C884661460904090C8C4682
:1024700039005943434370437E430F0CF61824043C
:10248000BE19644442448C46B34203D980235B02A4
:1024900098464044029B61469846049B3704434457
:1024A0009B46AB45AD416B420D0405992D0C8C4606
:1024B0007F196744FD18A8465D462D19A542A44121
:1024C00093466442A446C344DC448F42BF419845CE
:1024D0009B4193459241A445A4415B427F421F43E7
:1024E000360C52426442BF192243BF186246381864
:1024F0004302D20D039913436A020A43501E8241DC
:102500006146ED0D2A434E023243D90100D4B3E0B7
:102510000126500832400243DE0732435B08224C5A
:102520005444002C62DD510709D00F2010400428CC
:1025300005D0101D9042924152429B180200D901D1
:1025400004D580241948E4000340544418488442C8
:1025500000DD27E75E075B02D2081F0B6305164309
:102560005B0DB2E6002399460133042700269B4603
:1025700064E60323019781460C279B465EE6012211
:1025800001201743002276E6032303201F4343461E
:1025900071E6C046FF07000001FCFFFF0074000861
:1025A000FFFF0F800DFCFFFFFF030000FFFFFFFE9A
:1025B000FE0700000023802700933F030026434BC3
:1025C00083E6019B3200A446584670E6AC466EE6B0
:1025D000802701993F0339422DD03B422BD11F4325
:1025E0003F033F0B00951600384B6EE601252D1B6F
:1025F000382D00DD66E61F2D40DC35481C005044B8
:10260000160082408440EE40501E82413443144301
:10261000EB40620709D00F222240042A05D0220095
:10262000141D9442804140421B181A023ED50123DA
:102630000027002649E68027019B3F031F433F03F5
:102640003F0B0094214B40E603005A46283B9A403A
:10265000002601926DE65846FEF74EFD203057E603
:1026600003005246283B9A401300002293E650464E
:10267000FEF742FD20307BE6CA4650E71F201E00D1
:102680004042041BE640202D03D0124C5444A3408A
:102690001A43501E8241324307260027164009D0B4
:1026A0000F200023104014000428B9D122005E0737
:1026B0005B021F0BD2081643002306E680273F0368
:1026C0001F433F033F0B1600004BFEE5FF070000D2
:1026D0001E0400003E040000F8B557464E4645462D
:1026E000DE460C000903E0B5490A460F5F0031439E
:1026F0001E03DB0F760A9B46530F3343C84E65001B
:10270000C000E40FD2006D0DA24681467F0D9C46AD
:102710009046B74200D1B9E05B46012673409B4624
:10272000EE1BA34500D183E0002E63DD002F00D017
:10273000B1E06346134300D123E1731E002B00D0A8
:10274000BAE1861A6346B04280410125C91A404267
:10275000091A0B0200D447E149024B0A9846434646
:10276000002B00D189E14046FEF7C6FC0300083B80
:102770001F2B00DD7CE120223000D21A4146D040E0
:10278000994002009E400A439D4200DD6AE15D1BC4
:102790006B1C1F2B00DD94E1202110003500C91AAD
:1027A0008E40DA408840DD40711E8E4111000722C4
:1027B0002843002506433240002A09D00F23334026
:1027C000042B05D0331DB342B641764289191E0051
:1027D0000B0200D43DE26A1C914B55056D0D9A42E7
:1027E00000D119E18F4AF6080A40570752023743D1
:1027F000120B9BE0002E00D0C5E06E1C7605760D16
:10280000012E00DC48E16746861ACB1BB042BF416F
:102810007F42B8461F004346FF1A3B00B8461B02E2
:1028200000D55FE137439AD100220024002579E0EA
:10283000002E00DCFAE0002F00D18DE0784B9D42A5
:1028400067D0802367461B041F43BC46382E00DC3C
:1028500052E1634613435A1E93411E18864280413B
:10286000404209180B0200D4BEE06D4B01359D4279
:1028700000D1D2E06B4A73080A4001210E401E438A
:102880005108D30707221E43324095E71E00164326
:1028900000D045E740E7624B9D423AD0802367462F
:1028A0001B041F43BC46382E00DDEBE01F2E00DC6E
:1028B0003AE133006746203BDF403B00202E05D045
:1028C0004027BF1B6646BE40324390464646721EB6
:1028D00096413343DAE0002B00D114E26346134300
:1028E00000D168E180234E07C008C9081B030643D6
:1028F000194208D06046C008184204D1634601005E
:10290000D2085E071643F3009946C900720F444D82
:1029100011434B46DE08424B4F073743CA089D42DE
:1029200000D16EE012036D05120B6D0D0021120334
:10293000130B0A0D12051A433B4B2D0513402B4375
:102940005B00E4075B082343380019003CBC904659
:102950009946A246AB46F8BD6346134311D0731E99
:10296000002B00D007E18618864280416144404236
:10297000091801250B0237D502257BE73E00614689
:1029800091463500C5E75C46002D00D0E1E00B0024
:102990000343F3D0731C00D1ACE1214B9F4200D123
:1029A0003AE1F343382B00DD6FE11F2B00DD8CE1B2
:1029B00020250E00ED1AAE40B0460600AA46DE40C5
:1029C000454635432E005546D940A8406346451E2E
:1029D000A8415B1A9C463043161AB24292416346A4
:1029E0005242991A3D00B4E607223240002A00D034
:1029F000E4E60B4BF6084F073743CA089D4200D068
:102A000090E73B00134300D1A6E180231B031A4348
:102A10001203120B024D89E715000022002785E7FB
:102A2000FF070000FFFF7FFFFFFF0F80002E00D099
:102A3000C7E06B1C5E05760D012E00DCF0E0C84D92
:102A4000AB4200D1B9E085180A0085428941624451
:102A5000494251180722CE076D082E4349083240DB
:102A60001D00A9E6BF49ED1A114007223240A3E636
:102A7000320028388240002686E63000FEF73CFB14
:102A8000203073E6634613435A1E9341C61AB04280
:102A900080414042091A5CE60E0067460643174330
:102AA000002D5ED1002E00D0F3E0002F00D11EE1FA
:102AB0005C46614691462CE7A94FBE427BD01E0082
:102AC000F1E610001F3DE840202B03D04021CB1A37
:102AD0009A401643731E9E4107220643324000214E
:102AE000002583E7161A6346B2428041591A4042D4
:102AF0000B1A98465C4632E61F2E00DDABE020271D
:102B0000BB1B9A4663465746BB40994613004F4647
:102B1000F3401F433B005746BA40571EBA41134388
:102B20006246F240891898E62027BB1B9A46634606
:102B30005746BB40994613004F46F3401F433B00A6
:102B40005746BA40571EBA4113436246F240891AAB
:102B50009CE7834B9F425FD080252D04734229431D
:102B600020E7002E0CD1002F00D1D0E05C4661465A
:102B700091467B4DCDE67A4FBE421CD01E0065E6E5
:102B8000002F18D0C0084E0706438020C908000354
:102B9000014208D06346DC08044204D12100DA4631
:102BA000D2085E071643F300994601245346C90034
:102BB000720F11431C406A4DABE61D000022002736
:102BC000B4E6002D59D10B00034300D1D6E6731CA7
:102BD00000D1B2E0624B9F421ED0F343382B6FDC32
:102BE0001F2B00DD97E020250E00ED1AAE40B04609
:102BF0000600AA46DE40454635432E005546A8400D
:102C0000D940451EA8418C440643B61896429241CD
:102C1000514261443D0025E63D006146914678E61B
:102C20000B000343002D00D055E6002BF5D0634682
:102C3000134300D16DE686188642804161444042CC
:102C4000091800220B0200D4D0E6464B013519408A
:102C5000B2E5B1465DE633006746203BDF403B000E
:102C6000202E05D04027BF1B6646BE40324390460B
:102C70004646721E96413343EFE5394B9F42CBD017
:102C800080252D0473422943A8E70843411E88414B
:102C9000A2E6002F00D13CE66346861ACF1AB04266
:102CA0009B415B42FB1A98461B024ED5161A63469F
:102CB000B2429241591A5242891A5C4600227BE57F
:102CC00001430E00711E8E419FE71D000E00203D46
:102CD000EE40B046202B04D04025EB1A9940084323
:102CE000814648464346411E8841184374E6002207
:102CF000002417E6161A6346B2429241591A52420C
:102D0000891A3D0025E561469146154D01E6802270
:102D10000024120379E61D000E00203DEE40B0466F
:102D2000202B04D04025EB1A9940084381464E469B
:102D30004346711E8E411E4367E7861896429B41AB
:102D400061445B42C9183D008CE547463743CED00D
:102D500007224146324049E600273A00E6E5C046F0
:102D6000FF070000FFFF7FFF70B50C4E0D031C0333
:102D700049005B002D0B490D240B5B0DB14208D0BF
:102D8000064900208B4203D114432000441EA04179
:102D900070BD05430120002DFAD1F1E7FF070000C7
:102DA00030B5144D0A034B00120B5B0DC90F002404
:102DB000AB4211DD104CA34210DC8024640322439B
:102DC0000E4CE41A1F2C0CDD0D48C31ADA40130018
:102DD0005C42002900D11C00200030BD094BCC18FA
:102DE000FAE7094DE040AC4663449A4013000343C0
:102DF000EEE7C046FE0300001D040000330400009F
:102E000013040000FFFFFF7FEDFBFFFF70B50028FC
:102E10002DD0C317C5185D40C40F2800FEF76CF90C
:102E2000154B1B1A5B055B0D0A2815DD0B38854019
:102E300000222D032D0B002110002D030A0D2D0B58
:102E400012052A430D4D1B052A4013435B00E4077E
:102E50005B082343190070BD020029001532914020
:102E60000A000B21081AC5402D032D0BE3E70024AF
:102E7000002300250022DEE71E040000FFFF0F8074
:102E800010B5041E25D0FEF737F9144B1B1A5B054D
:102E90005B0D0A2812DD0B38844000222403240B2A
:102EA0000021100024030A0D240B120522430C4CB0
:102EB0001B05224013435B00590810BD020021008E
:102EC000153291400A000B21081AC4402403240B38
:102ED000E6E7002300240022E2E7C0461E040000CB
:102EE000FFFF0F8010B5040000F0D4FCFA21890028
:102EF000FDF70AF900F068F80120002221004042A5
:102F000000F032F8002010BD10B5064A13681021F9
:102F10000B4313600020FFF7E5FF02F00BF80020E1
:102F200010BDC04600200240024A136801331360FE
:102F30007047C04600020020014B18687047C04629
:102F40000002002030B583B00190FFF7F5FF0500C7
:102F5000019C631C00D00134FFF7EEFF401BA04230
:102F6000FAD303B030BD000070B5002811DB84082F
:102F7000134DC034A400625903231840C000FC3331
:102F80001E008640B24389010B40834013436351C6
:102F900070BDC0B20F220240083A92080632920079
:102FA000084BD3185D6803242040C000FF221400A2
:102FB0008440A54389010A4082402A435A60E7E7DA
:102FC00000E100E000ED00E001380A4B98420FD824
:102FD000094A50600948036A1B021B0AC0210906FE
:102FE0000B43036200239360073313600020704794
:102FF0000120FCE7FFFFFF0010E000E000ED00E033
:10300000F0B5C64600B582B000236EE08468344057
:10301000A446CC68BC406246144384604468AC4318
:103020004A681209012515409D4025434560C46842
:1030300026408C68BC403443C4604A68D20053D5F3
:103040004A4DAE6901242643AE61AD692C4001941E
:10305000019C9C08A51CAD00454EAF5903251D40A1
:10306000AD000F26AE40B7439026F605B04275D0AE
:10307000404EB04274D0404EB0426DD00526AE40B6
:1030800035003D430234A400394EA5513B4C256820
:103090004246D4432E0026404A68D20302D5424617
:1030A00015432E00354D2E606D682E0026404A686F
:1030B000920302D5424615432E00304D6E60AD6836
:1030C0002E0026404A68D20202D5424615432E0001
:1030D0002A4DAE60ED682C404A68920202D5424605
:1030E0002A431400254AD46001330A681400DC40E6
:1030F00038D001259D402A409046F5D04C68022CDE
:1031000001D0122C0ED1DC080834A4002758072661
:103110001E40B6000F22B24097430A69B240160023
:103120003E43265002685F0003242600BE40F6435B
:10313000324094464A681440BC40624614430460DE
:103140004C68621E012A00D860E7112C00D15DE7AF
:10315000122C00D06BE759E7022690E700268EE795
:1031600001268CE702B004BC9046F0BD001002407E
:10317000000001400004004800080048000401402D
:1031800070B582B004000368DB072BD5B34B5A68D7
:103190000C231340042B1DD0B04B5A680C23134052
:1031A000082B0ED06368012B41D0002B56D1AB4BBE
:1031B0001A68AB490A401A601A68AA490A401A609C
:1031C0003BE0A64B5B68C0225202134080225202B1
:1031D0009342E7D1A14B1B689B0303D56368002B87
:1031E00000D139E223689B0778D59C4B5B680C22A1
:1031F0001A4262D0994B5A680C231340082B53D0C3
:10320000E368002B00D18BE0944A136801210B4343
:103210001360FFF791FE0500904B1B689B0776D467
:10322000FFF78AFE401B0228F6D9032017E28B4ADB
:10323000116880235B020B4313606368002B25D069
:10324000FFF77AFE0500854B1B689B03CAD4FFF786
:1032500073FE401B6428F6D9032000E2052B09D039
:103260007E4B1A687E490A401A601A687D490A40F6
:103270001A60E2E7794B19688022D2020A431A6089
:103280001968802252020A431A60D6E7FFF754FEFB
:103290000500724B1B689B03A4D5FFF74DFE401B36
:1032A0006428F6D90320DAE16C4B5B68C022520235
:1032B0001340802212029342A2D1684B1B689B07E5
:1032C00004D5E368012B01D00120C8E163490B68F4
:1032D000F82293432269D20013430B6023681B0733
:1032E00044D5E369002B2ED05C4A536A01210B437D
:1032F0005362FFF721FE0500584B5B6A9B0735D4EC
:10330000FFF71AFE401B0228F6D90320A7E1534914
:103310000B68F82293432269D20013430B60DDE768
:103320004E4A136801218B431360FFF705FE050029
:103330004A4B1B689B07D1D5FFF7FEFD401B0228B7
:10334000F6D903208BE1454A536A01218B4353622E
:10335000FFF7F2FD0500414B5B6A9B0706D5FFF7BF
:10336000EBFD401B0228F6D9032078E123685B07B8
:1033700000D47FE0394BDB69DB001DD4374AD169CB
:10338000802040050143D161D36903400193019B33
:103390000125354B1B68DB0510D5A368012B21D017
:1033A000002B36D12D4B1A6A01218A431A621A6A00
:1033B00003318A431A621AE00025EAE72A4A1168B3
:1033C00080235B000B431360FFF7B6FD0600264B1E
:1033D0001B68DB05E1D4FFF7AFFD801B6428F6D93D
:1033E00003203CE11D4A136A01210B431362A368C9
:1033F000002B24D0FFF7A0FD0600184B1B6A9B078B
:1034000036D4FFF799FD801B184B9842F5D903205D
:1034100025E1052B09D0114B1A6A01218A431A6252
:103420001A6A03318A431A62E1E70C4B1A6A0421D3
:103430000A431A621A6A03390A431A62D7E7FFF786
:103440007BFD0600054B1B6A9B0711D5FFF774FD3A
:10345000801B064B9842F5D9032000E10010024082
:10346000FFFFFEFFFFFFFBFF00700040881300001E
:10347000012D3AD02368DB0610D56369012B3AD0C1
:10348000053358D1784A536B04218B435363536BF4
:10349000F4318B43A169C9000B43536323689B0636
:1034A00000D482E0704B5A680C2313400C2B60D080
:1034B0006D4B5A680C231340082B53D0236A002B02
:1034C00060D0694A516B80235B020B435363FFF763
:1034D00033FD0500644B5B6BDB0366D4FFF72CFD0B
:1034E000401B0228F6D90320B9E05F4AD3695F493F
:1034F0000B40D361BEE75C4B5A6B04210A435A630D
:103500005A6B03390A435A63FFF716FD0500564B01
:103510005B6B9B0706D4FFF70FFD401B0228F6D913
:1035200003209CE050494B6BF8229343A269D200E0
:1035300013434B63B2E74C4B5A6B04210A435A6363
:103540005A6B03398A435A63FFF7F6FC0500464B72
:103550005B6B9B07A2D5FFF7EFFC401B0228F6D957
:1035600003207CE0404B5B68C02252021340934230
:10357000A4D13D4B5B6BDB0317D5236A012B14D021
:1035800001206CE0384A536B39490B405363FFF715
:10359000D3FC0500344B5B6BDB0306D5FFF7CCFC9B
:1035A000401B0228F6D9032059E0636A002B55D04E
:1035B0002D4A51680C220A40082A52D0022B12D000
:1035C000294A13682B490B401360FFF7B5FC040030
:1035D000254B1B689B013DD5FFF7AEFC001B022865
:1035E000F6D903203BE0204A136822490B401360C0
:1035F000FFF7A2FC05001C4B1B689B0106D5FFF7DB
:103600009BFC401B0228F6D9032028E0164BDA6AFF
:103610000F218A43216B0A43DA625A6816490A402D
:10362000E16AA06A01430A435A6019688022520481
:103630000A431A60FFF780FC04000B4B1B689B01D8
:1036400006D4FFF779FC001B0228F6D9032006E018
:10365000002004E0002002E0012000E0002002B091
:1036600070BD0120FBE7C04600100240FFFFFFEFE6
:10367000FFFFFEFFFFFFFFFEFF7FC2FF30B589B0F7
:1036800004AA1F4B180032C832C2110002680A6037
:103690006A46103313CB13C21B681360194B5A6868
:1036A0000C231340082B04D00C2B26D0164809B04D
:1036B00030BD910C0F23194004A8445C1149C96A1C
:1036C0000B406946C95CC0235B021A4080235B0241
:1036D0009A4208D0C0235B029A4209D00A48FCF7FC
:1036E00013FD6043E3E70848FCF70EFD6043DEE7A7
:1036F0000648FCF709FD6043D9E70448D7E7C04610
:10370000C87200080010024000127A00006CDC024F
:1037100070B505000C00594B1A68012313408B4209
:103720000BD256490B680122934323430B600B686D
:103730001A40A24201D0012070BD2B689B0706D51C
:103740004F4A5368F0218B43A9680B4353602B68A1
:10375000DB0763D56B68012B09D0022B28D0032B24
:103760002CD0474A1268920705D40120E4E7444A66
:10377000126892037FD542494A680320824313436B
:103780004B60FFF7D9FB06006B68012B1CD0022BA6
:1037900028D0032B34D03A4B5B680C221A423DD020
:1037A000FFF7CAFB801B374B9842F4D90320C3E7CD
:1037B000334A12689201DED40120BDE7304A526BD1
:1037C000D203D8D40120B7E72D4B5A680C231340FD
:1037D000042B23D0FFF7B0FB801B2A4B9842F3D970
:1037E0000320A9E7264B5A680C231340082B15D059
:1037F000FFF7A2FB801B234B9842F3D903209BE7E2
:103800001F4B5A680C2313400C2B07D0FFF794FB77
:10381000801B1C4B9842F3D903208DE7174B1A6885
:1038200001231340A3420BD914490B68012293438F
:1038300023430B600B681A40A24201D001207BE7B2
:103840002B685B0706D50E4A53680F490B40E968A1
:103850000B435360FFF712FF094B5A6812090F23FD
:1038600013400A4AD35CD840094B18600020FFF788
:1038700039FB002060E701205EE7C04600200240DF
:103880000010024088130000FFF8FFFFE8720008F4
:1038900004000020014B18687047C0460400002057
:1038A00010B5FFF7F7FF044B5A68120A07231340BD
:1038B000024AD35CD84010BD00100240F8720008E4
:1038C00070B582B004000368DB0335D5464BDB6975
:1038D000DB005CD4444AD169802040050143D161BA
:1038E000D36903400193019B0125404B1B68DB0515
:1038F0004FD53D4B1B6AC0229200134013D0616824
:103900000A409A420FD0384B186A394A02401E6A60
:103910008021490231431962196A364E31401962D9
:103920001A62C30749D4304A136A31490B406168AF
:103930000B431362012D4FD02368DB0706D52A4ABB
:10394000136B03218B43A1680B43136323689B060E
:1039500006D5254A136B10218B43E1680B43136393
:1039600023689B0306D5204A136B80218B43616932
:103970000B43136323685B0533D51B4A136B40214C
:103980008B4321690B431363002002B070BD0025F7
:10399000ABE7164A116880235B000B431360FFF707
:1039A000CBFA0600114B1B68DB05A2D4FFF7C4FA63
:1039B000801B6428F6D90320E7E7FFF7BDFA06006D
:1039C000094B1B6A9B07AED4FFF7B6FA801B0A4B64
:1039D0009842F5D90320D8E7D36908490B40D36151
:1039E000AAE70020D1E7C046001002400070004066
:1039F000FFFCFFFFFFFFFEFF88130000FFFFFFEF4C
:103A000070B5040083680269134342691343C269B5
:103A1000134301680A686048024013430B60226840
:103A200053685E490B40E1680B435360A269236A07
:103A30001A4321688B685A48034013438B602568FA
:103A4000584B9D4220D0584B9D4231D010238022AC
:103A50001202E16991422FD0022B00D180E000D800
:103A60006EE0042B00D187E0082B00D092E0616863
:103A7000480880231B029C466044FCF745FB000479
:103A8000000CE860002040E0484B1A6B0323134011
:103A9000012B09D0002B05D0022B07D0032B09D016
:103AA0001023D4E70023D2E70423D0E70823CEE78E
:103AB0000023CCE70223CAE7022B27D00FD9042B1F
:103AC0002FD0082B39D16368580880235B029C46AD
:103AD00060446168FCF718FB83B200200CE0002B07
:103AE0002BD1FFF7DDFE400063685B08C0186168FA
:103AF000FCF70AFB83B200200F22190091435B10F0
:103B0000083A13400B432268D36070BD63685808BD
:103B1000274B9C4660446168FCF7F6FA83B20020AC
:103B2000EAE7FFF7ABFD400063685B08C018616817
:103B3000FCF7EAFA83B20020DEE701200023DBE78E
:103B4000002B27D1FFF7ACFE63685B08C0186168E3
:103B5000FCF7DAFA23680004000CD8600020D4E7F0
:103B600061684808134B9C466044FCF7CDFA00049A
:103B7000000CE8600020C8E7FFF780FD63685B0881
:103B8000C0186168FCF7C0FA23680004000CD86014
:103B90000020BAE70120B8E7F369FFEFFFCFFFFF8E
:103BA000FFF4FFFF003801400044004000100240D5
:103BB0000024F40000127A00436ADB0706D502688D
:103BC00053682C490B40816A0B435360436A9B073F
:103BD00006D50268536828490B40C16A0B435360FD
:103BE000436A5B0706D50268536824490B40016BA2
:103BF0000B435360436A1B0706D50268536820498C
:103C00000B40416B0B435360436ADB0606D50268E9
:103C100093681C490B40816B0B439360436A9B067E
:103C200006D50268936818490B40C16B0B4393603B
:103C3000436A5B060BD50268536814490B40016C5C
:103C40000B43536080235B03026C9A420AD0436AA1
:103C50001B0606D5026853680D490B40816C0B4367
:103C600053607047026853680A490B40416C0B432C
:103C70005360ECE7FFFFFDFFFFFFFEFFFFFFFBFFD1
:103C8000FF7FFFFFFFEFFFFFFFDFFFFFFFFFEFFF04
:103C9000FFFFF7FFFFFF9FFFF0B5C64600B5060028
:103CA0000C0017009846069D3368DB6923401B1BF8
:103CB0005A425341BB421ED16B1CF5D0002D05D09A
:103CC000FFF73AF94346C01AA842EDD932681368A3
:103CD0000B490B40136032689368A331FF318B436B
:103CE000936020236922B3540132B3544833002235
:103CF000F254032000E0002004BC9046F0BDC04612
:103D00005FFEFFFFF0B585B004000E0017001D0038
:103D10006923C35C202B59D100295AD0002A5AD0DC
:103D200080235B0182689A4213D06823E35C012BF5
:103D300053D068230122E2540023E3666933203222
:103D4000E254FFF7F9F803905023E7520233E752A9
:103D50000AE00369002BE8D1CB07E6D5012036E065
:103D600033782268138501365223E35A9BB2002B25
:103D70001CD05222A35A013B9BB2A3520095039B35
:103D8000002280212000FFF787FF002827D1802311
:103D90005B01A2689A42E3D12369002BE0D133880A
:103DA000DB05DB0D226813850236DDE70095039BFA
:103DB000002240212000FFF76FFF002811D1692366
:103DC0002022E254013B0022E25400E0022005B030
:103DD000F0BD0120FBE70120F9E70220F7E703200F
:103DE000F5E70320F3E70000F0B585B004000F000D
:103DF00016001D006A23C35C202B00D083E000293D
:103E000000D183E0002A00D182E080235B01826838
:103E10009A4221D06823E35C012B00D17AE0682329
:103E20000122E2540023E3666A332132E254FFF7B1
:103E300083F803905823E6520233E652A3688022A7
:103E4000520193420FD0002B1CD12369002B15D1B6
:103E50005C33FF22E25219E00369002BDAD1CB0771
:103E6000D8D5012050E02369002B03D15C332B4AC5
:103E7000E2520BE05C23FF22E25207E05C237F2248
:103E8000E25203E080225205934202D05C23E65ABC
:103E900010E02369002B03D15C337F22E252F5E767
:103EA0005C233F22E252F1E723689B8CF2B213407D
:103EB0003B7001375A23E35A9BB2002B1BD05A2286
:103EC000A35A013B9BB2A3520095039B00222021E1
:103ED0002000FFF7E1FE00281ED180235B01A268CD
:103EE0009A42E1D12369002BDED123689B8C3340B9
:103EF0003B800237DEE76A332022E254023B002295
:103F0000E254002000E0022005B0F0BD0120FBE7F4
:103F10000120F9E70220F7E70320F5E7FF010000A1
:103F200030B583B004000023C366FFF705F8050031
:103F30002368174A93420AD020236922A3540132EE
:103F4000A35448330022E254002003B030BD1B6864
:103F50001B0710D423681B685B07EDD580210D4B30
:103F600000932B000022C9032000FFF795FE0028D4
:103F7000E2D00320E9E78021064B009303000022F2
:103F800089032000FFF788FE0028E3D00320DCE748
:103F900000380140FFFFFF0110B5041E30D0692337
:103FA000C35C002B22D069232422E25422681368C8
:103FB00001218B4313602000FFF722FD012814D05C
:103FC000636A002B18D1226853680E490B40536076
:103FD000226893682A218B439360226813682939E9
:103FE0000B4313602000FFF79BFF10BD68330022D6
:103FF000C25400F0B7FFD6E72000FFF7DDFDE2E78F
:104000000120F2E7FFB7FFFF10B58368DB070BD491
:10401000C368064A13404A688C682243C9680A4349
:104020001343C360012010BD0020FCE7C73FFFFF22
:1040300010B58368DB070FD4C368084A1A400B68C1
:104040004C6823438C682343CC68234309690B43A2
:104050001343C360012010BD0020FCE73CC2FEFFFB
:10406000F0B5002209E0C66834400E696E4334435F
:10407000C4604C68022C1ED001320B681C00D44076
:1040800034D0012494402340F6D006681D005D43DF
:104090006C006419E44326404F686F433E4306605A
:1040A0004E68013E012EDED8866826408F686F4339
:1040B0003E438660D7E7FF2B0AD8046A5D436B4313
:1040C0001D01ED1AAC434D696B4323430362D3E7F3
:1040D000456A1B0A1C005C435C4363431C01E41AF1
:1040E000A5434C6963432B434362C5E74A68013AE1
:1040F000012A01D90120F0BDC96842689A434B43A7
:1041000013434360F6E7000003681D4A904206D05F
:104110008022D205904202D01A4A904203D17022E6
:1041200093434A681343164A90420FD08022D20527
:1041300090420BD0134A904208D0134A904205D0C7
:10414000124A904202D0124A904203D1114A1340BF
:10415000CA68134303608B68C3620B888362084B91
:10416000984205D0094B984202D0094B984201D1A0
:104170000B7C0363436901221343436101207047B1
:10418000002C014000040040002000400044014099
:1041900000480140FFFCFFFF82B0084B1B68019301
:1041A000019B431C00D00130002805D0034B1B6845
:1041B000DB03F9D50138F7E702B0704710E000E003
:1041C00010B50D4A0D4B9360D06053681B0C1B0457
:1041D00008210B43536013680124234313600849EB
:1041E0008A680848024022438A608B6803400422A0
:1041F00013438B6010BDC0460800024040240140BC
:1042000000240140E8FFFF7FF0B5C64600B584B04A
:104210000700884602920393002411E0A60043465B
:104220009D1902992868FCF7BFFB0190B8590399C2
:10423000FCF7BAFB011C0198FCF744F82860013434
:10424000072CEBDD04B004BC9046F0BD9022D205F3
:104250001369802149010B40036013698022920099
:10426000134043607047F8B50D1C171C1C1CFCF76D
:10427000CDFC061C211C0698FCF7C8FC011C301C58
:10428000FCF792FB061C291C381CFCF7BFFC011C28
:10429000301CFCF7B1F9211CFCF714F8051C011CBB
:1042A0000698FBF7E3FF002800D00695211C06982E
:1042B000FBF7DCFF002801D00698F8BD0694FBE769
:1042C00070B582B00D1CFCF785FEFE239B050093A4
:1042D000174B184A0021FFF7C6FF041C80231B065A
:1042E000EE18011C301CFBF7B7FF002805D0291C75
:1042F000201CFBF7B1FF002818D10021201CFBF780
:10430000B5FF002809D0FE22920500920023291C47
:10431000201CFFF7A8FF02B070BD054900230093E1
:104320000B1C321C201CFFF79EFFF4E70020F2E775
:10433000000080BF9AD17A45002303E09A00002153
:1043400081500133072BF9DD70470000002803D1AD
:10435000034B01229A627047014B01229A61FAE7EE
:1043600000140048094B984200D91800084B5862C5
:104370001A6801210A431A60054B5B6A002BFBD1C6
:10438000034A136801218B4313607047FFFF00004D
:104390000004004070B5054C0225A5610A20FFF716
:1043A000E1FFA5623C20FFF7DDFF70BD001400486F
:1043B000002A01D1816270478161FCE7F8B5DE46D1
:1043C000574680B504000509274B1B78012B05D003
:1043D000022B06D00CBC92469B46F8BDFFF7DAFFD5
:1043E000F8E7013B9B461A002A40802149009020B3
:1043F000C005FFF7DDFF02239A461A002A408021FC
:1044000009019020C005FFF7D3FF04273A002A4096
:1044100020211648FFF7CCFF08262A003240102141
:104420001248FFF7C5FFFFF7B5FF5A46224080212B
:1044300049009020C005FFF7BBFF52462240802173
:1044400009019020C005FFF7B3FF3A002240202168
:104450000648FFF7ADFF3200224010210348FFF766
:10446000A7FFFFF797FFB5E7000000200004004812
:1044700010B504000020FFF769FF2000FFF79EFF42
:1044800010BD10B504000120FFF760FF2000FFF70A
:1044900095FF10BD70B504000020FFF757FF012203
:1044A000224080219025ED0549002800FFF780FF7C
:1044B00002222240802109012800FFF779FF04220F
:1044C0002240074D20212800FFF772FF08222240DA
:1044D00010212800FFF76CFFFFF75CFF70BDC0469E
:1044E0000004004810B5184B02221A7026325A7088
:1044F0001420FFF751FE0320FFF7CCFF0520FFF744
:104500004BFE0320FFF7C6FF0120FFF745FE032007
:10451000FFF7C0FF0120FFF73FFE0220FFF7BAFFC1
:104520000120FFF739FE0F20FFF7A2FF0120FFF760
:104530009FFF0320FFF730FE2820FFF799FF03209D
:10454000FFF72AFE10BDC0460000002070B5050030
:10455000002403E0FFF795FF0134E4B20F2C02D8EA
:10456000285D0028F6D170BD10B501390F23194020
:10457000012806D0402040420843C0B2FFF778FF30
:1045800010BD81380843C0B2FFF772FFF8E70000A2
:1045900010B5044B9878022290439870FFF768FF9B
:1045A00010BDC0460000002010B50120FFF760FFDD
:1045B0000320FFF7F1FD10BD10B5044B98780122E0
:1045C00090439870FFF754FF10BDC04600000020D4
:1045D00000B585B002000449684601F039FA684622
:1045E000FFF7B4FF05B000BD4074000882B00A4A6E
:1045F0005169012319435161526913400193019B91
:10460000064BC22189005A58054802405A50802260
:1046100092001A6002B070470010024000E100E012
:10462000FF00FFFFF0B5DE4657464E464546E0B573
:104630008BB01822002104A800F0A4FD524B596948
:104640008020C003014359615A6902400392039AD2
:10465000596980208002014359615A6902400292DF
:10466000029A5A698021C9020A435A615B690B4068
:104670000193019B454B984601259D6202249C6253
:104680009026F60580235B009B46B3628023DB0007
:104690009A46B36280231B019946B3623C4F0823BC
:1046A000BB621022BA622021B9620495059504A864
:1046B00001004046FFF7D4FC0494059500240694BD
:1046C0000794089404A801004046FFF7C9FC584627
:1046D0000490059506940794089404A801003000FE
:1046E000FFF7BEFC80239B0004930594089504A863
:1046F00001003000FFF7B4FC504604900595069485
:104700000794089404A801003000FFF7A9FC48466C
:104710000490059506940794089404A801003000BD
:10472000FFF79EFC80235B0104930594089504A881
:1047300001003000FFF794FC0823049305950694CC
:104740000794089404AB19003800FFF789FC102285
:104750000492059506940794089404AB1900380058
:10476000FFF77EFC20210491059506940794089498
:1047700004A93800FFF774FC0BB03CBC9046994686
:10478000A246AB46F0BDC0460010024000140048EF
:1047900000040048F0B5DE4657464E464546E0B5B3
:1047A00093B0102200210EA800F0ECFC142200218E
:1047B00009A800F0E7FC1822002103A800F0E2FCA1
:1047C000724B9A69802189000A439A619A690A406A
:1047D0000292029A596980208002014359615A6904
:1047E00002400192019A5A698021C9020A435A6122
:1047F0005B690B400093009B01239A4603930325BA
:1048000004959026F60503AB19003000FFF728FC4D
:104810000227039704950024079403AB1900300086
:10482000FFF71EFC08239B4603930495079403ABF4
:1048300019003000FFF714FC10230393049507942C
:1048400003A801003000FFF70BFC202081460390F5
:104850000495079403A801003000FFF701FC8020B5
:10486000804603900495079403A801003000FFF7E9
:10487000F7FB5046039004950794454E03A80100AA
:104880003000FFF7EDFB03970495079403A80100A0
:104890003000FFF7E5FB3F4B1A683F490A401A60BA
:1048A0001A683E490A401A601A6848468243024321
:1048B0001A601A6840218A431A601A684046824387
:1048C00002431A601A6836490A40802149000A43A7
:1048D0001A601A68334810408022D20002431A60DE
:1048E000314BC32080001A58FF26B2431A50802053
:1048F000400118602D4EB36A52461343B362B36A47
:104900003B43B362B36A5A461343B362B36A083295
:104910001343B362B36A4A461343B362B36A42466F
:104920001343B362B36A1943B162B36A8021890049
:104930000B43B3620E940F94109411940EA930009F
:10494000FFF762FB09940A9480239B010B930C955B
:10495000802040010D9009A93000FFF769FBF36842
:1049600004229343F360736907218B431F437761EC
:1049700073689343736073685A469343736013B0CC
:104980003CBC90469946A246AB46F0BD00100240A2
:104990000004004808000240EFBFFFFFFFCFFFFF09
:1049A000FFFCFFFFFFF3FFFF00E100E000240140F8
:1049B00010B50948094B036096231B02436000238E
:1049C0008360C36003610C2242618361C36103623F
:1049D0004362FFF7E1FA10BD74020020004400407A
:1049E00010B50948094B0360E1235B0243600023D3
:1049F0008360C36003610C2242618361C36103620F
:104A00004362FFF7C9FA10BD0402002000380140DC
:104A100030B587B001AD0224122200216B46981DEB
:104A200000F0B0FB114BDA692243DA61DB691C400C
:104A30000094009B2F232B801F3B6B600C4BAB60C3
:104A40000C4C29002000FFF75FFB23688022934372
:104A50002360A36808490B40A360636870218B43FF
:104A60006360A3689343A36007B030BD00100240A9
:104A7000FFFF000000040040F8BFFFFF84B010B546
:104A80000290039104920593FFF78EFD0B9B002B80
:104A90003CD10A9B002B20D001210120FFF764FDAF
:104AA0003F48FFF753FD0D210120FFF75DFD0898FA
:104AB0003C49FBF779FFFCF76DFAFFF789FD01210F
:104AC0000220FFF751FD3848FFF740FD0C98FFF733
:104AD0003DFD10BC08BC04B0184701210120FFF7C0
:104AE00043FD02982F49FBF75FFFFCF753FAFFF7EE
:104AF0006FFD07210120FFF737FD03982949FBF7D8
:104B000053FFFCF747FAFFF763FDCCE701210120D3
:104B1000FFF72AFD08982349FBF746FFFCF73AFA0E
:104B2000FFF756FD07210120FFF71EFD07981D49DD
:104B3000FBF73AFFFCF72EFAFFF74AFD0D210120A3
:104B4000FFF712FD09981749FBF72EFFFCF722FA31
:104B5000FFF73EFD01210220FFF706FD06981149EF
:104B6000FBF722FFFCF716FAFFF732FD07210220C0
:104B7000FFF7FAFC05980B49FBF716FFFCF70AFA5A
:104B8000FFF726FD0D210220FFF7EEFC04980549F2
:104B9000FBF70AFFFCF7FEF9FFF71AFD99E7C0469D
:104BA0004C7400080000C8425874000803E000225A
:104BB0000270013019004B1E0029F8D1704730B542
:104BC00099B0302200210CA800F0DCFA1024102249
:104BD000002107A800F0D6FA1822002101A800F051
:104BE000D1FA12230B9301250E9510950F94119471
:104BF0000E3C149480231B02159380235B031693B1
:104C00000BA8FEF7BDFA0723079308940024099424
:104C10000A94012107A8FEF77BFD0195039401A8E2
:104C2000FEF74EFE19B030BDF0B5DE4657464E4693
:104C30004546E0B5AF4CA5442EA8FFF77DFB26A85E
:104C4000FFF77AFB1EA8FFF777FB16A8FFF774FBA8
:104C5000802189003AA8FFF7A9FFFEF755F9FFF771
:104C6000AEFFFFF7DFFCFFF7C1FCFFF7B9FEFFF770
:104C700091FDFFF79DFEFFF7CBFEFFF733FCFFF73B
:104C800087FCFFF799FC36A8FFF79AFA0024002763
:104C9000E2E06A0036ABD05AAE002EAB9C466644CA
:104CA000FCF798F930600135072DF2DD14A8FFF705
:104CB000CDFAFC229205131C26A92EA8FFF7A4FA10
:104CC000149B002B00D1CBE000231E931F9316935F
:104CD00017932C98884EFBF7DDFA80B2311CFFF752
:104CE000EFFA1C902C980025FBF7D4FA80B2291C0F
:104CF000FFF7E6FA24902B98FBF7CCFA80B2311C30
:104D0000FFF7DEFA1B902B98FBF7C4FA80B2291C40
:104D1000FFF7D6FA23902D98FBF7BCFA80B2311C2E
:104D2000FFF7CEFA1D902D98FBF7B4FA80B2291C3C
:104D3000FFF7C6FA25902A98FBF7ACFA80B2311C2F
:104D4000FFF7BEFA1A902A98FBF7A4FA80B2291C42
:104D5000FFF7B6FA22902998FBF79CFA80B2311C33
:104D6000FFF7AEFA19902998FBF794FA80B2291C44
:104D7000FFF7A6FA21902898FBF78CFA80B2311C35
:104D8000FFF79EFA18902898FBF784FA80B2291C46
:104D9000FFF796FA2090209B24982099FBF704FEB9
:104DA0000F901E981F9D249E239B9846259B9946F5
:104DB000229B9A46219B9B46FCF74CF9109011913F
:104DC0000F98FCF747F90C900D915846FCF742F903
:104DD0000A900B915046FCF73DF90890099148461E
:104DE000FCF738F9069007914046FCF733F9049038
:104DF0000591301CFCF72EF902900391281CFCF75A
:104E000029F900900191109A119B3C49BAA800F031
:104E10001FFE0200BAA93A4800F07AF801343AAB12
:104E2000069314AB04AA03CB03C21AAB6A4623CB86
:104E300023C21B68136016981799189A199BFFF7DD
:104E40001DFEE31B3C2B36D82E4A536908214B40EC
:104E500053613220FEF776F8FFF7C2FD002523E705
:104E600026980025FBF716FA80B2291CFFF728FACE
:104E700080231B069C4660441E902798FBF70AFA85
:104E800080B2291CFFF71CFA1F9026981E4DFBF7D5
:104E900001FA80B2291CFFF713FA80231B069C46F7
:104EA000604416902798FBF7F5F980B2291CFFF7AC
:104EB00007FA17900DE70A20FEF744F8BAA9134B3A
:104EC0000A0061CB61C21B6813600D4D0F222800E0
:104ED00000F01EF8FA239B000A223AA9280000F0ED
:104EE00024F804AA3F23D218107004AAD3181B7800
:104EF0002700A9E714FBFFFF0AD7A33C6074000852
:104F000004020020000400480AD7A33D9074000862
:104F100070B59024E4058025ED00A561FA2392B2D6
:104F20009B00FEF7EFFEA56270BD10B592B2FEF7D2
:104F30005BFF10BD82B00A4B996901221143996150
:104F400099690A400092009ADA69802149050A436A
:104F5000DA61DB690B400193019B02B07047C046E8
:104F60000010024010B58AB004001422002105A8E8
:104F700000F008F92368224A934204D0214A934260
:104F80001FD00AB010BD204B99698020C001014399
:104F900099619A6902400192019A5A698021C90275
:104FA0000A435A615B690B400293029BC02305933D
:104FB000BE3B06930133089305A91448FEF720F879
:104FC000DFE7114BD969802292021143D961D96977
:104FD0001140039103995969114359615B691A4062
:104FE0000492049B0A4B0593022306930133089312
:104FF000023B0993902005A9C005FEF701F8C0E720
:105000000038014000440040001002400004004805
:10501000048000007047FEE77047704710B5FDF749
:1050200083FF10BD0A4B1B689B0702D5084B022269
:105030005A60074B1B681B0702D5054B08225A60B4
:10504000034B1B685B0702D5014B04225A60704773
:105050000000024070470000114B1A6801210A430A
:105060001A605A680F4802405A601A680E48024097
:105070001A601A680D4802401A605A680C480240CB
:105080005A60DA6A0F208243DA621A6B09480240DA
:105090001A635A6B8A435A6300229A607047C0466B
:1050A000001002400CB8FF08FFFFF6FEFFFFFBFFF9
:1050B000FFFFC0FF2CFEFFFF134885461348016821
:1050C000090E134A914205D1124813490160134851
:1050D0001349016013481449144A002302E0D458CC
:1050E000C4500433C4188C42F9D3114A114C002324
:1050F00001E013600432A242FBD3FFF7ADFF00F0E2
:105100001DF8FFF791FDFEE70018002004000000E5
:105110001F000000181002400100000000000140C4
:105120000000000000000020D801002008770008DF
:10513000D8010020E8020020FEE7000070B500263C
:105140000C4D0D4C641BA410A64209D1002602F0A0
:10515000ADF80A4D0A4C641BA410A64205D170BDDF
:10516000B300EB5898470136EEE7B300EB58984789
:105170000136F2E7007700080077000800770008A2
:105180000477000803001218934200D17047197089
:105190000133F9E7F0B58BB014001D1E129953DAF4
:1051A000802424061B191D0014002D230B702023BE
:1051B000149E03229E43462E07D03300453B59429E
:1051C0004B411099013ACB18109309AB049308ABEB
:1051D0000393139B00920293109B220001932B00D8
:1051E00000F0DCFC0700472E02D1119BDB0724D521
:1051F000109BFB180793462E14D13B78302B0CD113
:105200000022002320002900FCF7A0F8002804D188
:105210000123109A9B1A139A1360139B079A1B6819
:10522000D31807930022002320002900FCF78EF8F2
:10523000302200280DD0079B09933800099B159A4E
:10524000DB1B13600BB0F0BD0023AFE7591C0991C5
:105250001A70099B07998B42F8D3EEE7F0B5831CCF
:1052600085B0019306000C0002702B23002901DA9F
:105270002D234C427370092C22DD02ABDD1D200072
:105280000A21FCF74FF86F1E3031397020000A21D7
:10529000FBF762FF040009280BDC023D3034019B60
:1052A0002C7002AA07321800AA4204D8801B05B04D
:1052B000F0BD3D00E3E72A7801351A700133F0E7CD
:1052C0003023E418B370301DF470EFE7F0B595B0FB
:1052D0000C000A920B931A9D099001F03FFA0368A3
:1052E00018000C93FBF726FF0023129323680E90FF
:1052F0000D930D99277E2B680722C90545D59B186C
:1053000093431A0008322A601A685B68A264E36457
:105310000122E56CA66C6B005B080F935242AC4B0C
:1053200030000F99FDF720FD002830D10122A84B55
:10533000524230000F99FCF719F8002827D10022BB
:10534000002330002900FCF707F8002803D02300D1
:105350002D2243331A709F4D472F00D89E4D0323B3
:1053600000260D9A236101339A4322600B9B13AAF6
:10537000009321000A9B099800F0F4F9431C00D027
:1053800093E00120404215B0F0BD0733B8E732008A
:105390002B0030002900FDF7E7FC002804D08F4DDA
:1053A000472FDCD88E4DDAE780230D996268DB0049
:1053B0000B43511C43D10732626012AA00210592AF
:1053C00011AA0392232223600691019308A963681E
:1053D00052180292009332002B0004970998FFF7AD
:1053E000D9FE20233A0005009A43472A07D1119B92
:1053F000DA1C02DB6268934245DD023FFFB211997D
:10540000652F25D8200001393A0050301191FFF75F
:1054100025FF129A060013182361012A02DC226874
:10542000D20701D501332361232308AA9B181B78D7
:10543000002B9BD023002D2243331A7096E7672F51
:1054400000D176E1472FB8D1002AB6D10122B3E7C7
:10545000662F19D1636800290CDD2161002B02D170
:105460002268D20702D501335B182361119B002605
:10547000A365D9E7002B03D101222168114200D096
:105480009A1C2261F2E76727119B129A934205DB6F
:1054900022682361D207E9D50133E6E70121002B19
:1054A00001DC4918C91A5218EBE72268530508D4E1
:1054B00023692A000A9909980B9DA847431C29D102
:1054C0005FE7652F00D8E0E0A06CE16C00220023CC
:1054D000FBF73CFF002834D00123424A0A9909987F
:1054E0000B9DA847431C00D14BE7119B129A934296
:1054F00002DB2368DB070DD50B9D0E9B0C9A0A99E6
:105500000998A8470025431C00D13AE7129B013BAC
:10551000AB420ADC23689B0700D508E1139BE068D7
:10552000984200DB2FE718002DE7220001231A32F2
:105530000A9909980B9EB047431C00D121E7013519
:10554000E4E7119B002B2DDC0123264A0A990998D8
:105550000B9EB047431C00D113E7119B002B05D1D4
:10556000129B002B02D12368DB07D3D50B9E0E9B29
:105570000C9A0A990998B0470026431C00D100E70D
:10558000119B5B42B34201DC129B92E72200012394
:105590001A320A9909980B9FB847431C00D1F0E6CC
:1055A0000136EDE7A36D129F9F4200DD1F00002F23
:1055B00008DD3B002A000A9909980B9EB047431C5E
:1055C00000D1DEE600230D93FB43DB170F9318E0B9
:1055D000FFFFEF7FA4740008A0740008AC740008FB
:1055E000A8740008B0740008220001231A320A9936
:1055F00009980B9EB047431C00D1C2E60D9B0133B6
:105600000D930F9BA66D0D9A3B40F31A9342EBDC72
:10561000119B129AAD19934210DB2368DB070DD45E
:10562000129F119BBE1BFF1AB74200DD3700002FEF
:105630000DDCFE43F31700250C931CE00E9B0C9A27
:105640000A9909980B9FB847431CE9D199E63B009A
:105650002A000A9909980B9DA847431CE9D190E6B6
:10566000220001231A320A9909980B9EB047431C65
:1056700000D186E60135119A129B0C999B1A3A00CB
:105680000A409B1AAB42EBDC44E7129B012B02DC85
:1056900001231A4232D001232A000A9909980B9F4C
:1056A000B847431C00D16CE60E9B0C9A0A990998E6
:1056B0000B9F0135B847431C00D162E6A06CE16C3A
:1056C000129B00225F1E0023FBF740FE3B000028D8
:1056D00014D000250AE0220001231A320A99099801
:1056E0000B9FB847431C00D14BE60135129B013B91
:1056F000AB42F0DC220033005032DBE62A000A998C
:1057000009980B9DA847431CF4D13AE622000123D7
:1057100019320A9909980B9EB047431C00D130E614
:105720000135E368139A9B1AAB42EFDCF6E60025DD
:10573000F7E7002A00D189E60021069112A9059118
:1057400011A90391232108A809182360019300924D
:105750002B000497029132000998FFF71BFD05000A
:1057600045E6C046F7B5150001938A680B690090BD
:105770000C00934200DA130022002B6043321278AF
:10578000002A01D001332B6023689B0602D52B68C9
:1057900002332B60062723681F4027D023004333A2
:1057A0001B785A1E93412268920630D42200019938
:1057B00043320098089EB047431C25D0062320683A
:1057C0002A68E16803400025042B03D18D1AEB43BE
:1057D000DB171D40A3682269934201DD9B1AED1877
:1057E0000027BD4220D1002010E00137E3682A687D
:1057F0009B1ABB42D2DD2200012319320199009885
:10580000089EB047431CF0D101204042FEBD30202D
:10581000E1184331087021005A1C45310978A2185B
:10582000433202331170C1E7220001231A32019979
:105830000098089EB047431CE6D00137D1E700002E
:10584000F0B589B004920A004332059303900292A6
:105850000A7E0C000E9B6E2A00D186E01FD8632AB8
:1058600033D008D8002A00D18CE0582A4DD025002A
:1058700042352A7030E0642A01D0692AF7D11968CC
:1058800025680A1D280629D508681A60002803DA49
:105890002D23029A404213706B4E0A274FE0732A61
:1058A00074D008D86F2A1FD0702AE0D1202209684E
:1058B0000A43226003E0752A16D0782AD7D1220045
:1058C000782145321170614E22E025001A68423578
:1058D000111D196013682B70012365E008681A60B8
:1058E0006906D3D500B2D1E719682568081D18608C
:1058F00008682E0605D5544E08276F2A1BD00A27A4
:1059000019E06D06F7D580B2F5E745314E4E0A70C5
:1059100018682268011D00681960150621D5D30793
:1059200002D520231A4322601027002803D1202308
:1059300022689A4322602300002243331A7063686E
:10594000A360002B58DB04222168914321600028CA
:1059500054D1029D002B5AD02500337842352B704C
:1059600055E05506DBD580B2D9E71A680D68101DE1
:105970004969186013682E0601D5196002E06D06AA
:10598000FBD519800023029D23614FE01A68111D89
:105990001960156800216268280000F0F5FE0028F3
:1059A00001D0401B6060636823610023029A13707A
:1059B0003CE023692A0004990398059DA847431CED
:1059C0003ED023689B0715D4079BE068984239DADC
:1059D000180037E022000123193204990398059E2C
:1059E000B047431C2CD00135E368079A9B1AAB42A1
:1059F000F0DCE9E70025F7E70028ADD0029D39008B
:105A0000FAF708FC735C013D2B700028F7D1082FD2
:105A100009D12368DB0706D563682269934202DC5B
:105A20003023013D2B70029B5B1B2361059B07AA62
:105A300000932100049B0398FFF794FE431CB8D108
:105A40000120404209B0F0BDB2740008C3740008E0
:105A50000EB400B50B499CB01DAB029006900791A7
:105A600004910948094904CB0591006802A90193F2
:105A700001F09CFA0023029A13701CB008BC03B01A
:105A80001847C046FFFFFF7F080000200802FFFF05
:105A9000F0B503690C6989B0070005910026A3429F
:105AA00065DB0B00013C1433A50003935B190493E1
:105AB0000300143302935D19049B28681B68591C6A
:105AC0000193FAF721FB0190B04229D0039B029881
:105AD0009C460696624608CA9446019A99B251437A
